:020000021000EC
:10E000000C944FF00C946EF00C946EF00C946EF037
:10E010000C946EF00C946EF00C946EF00C946EF008
:10E020000C946EF00C946EF00C946EF00C946EF0F8
:10E030000C946EF00C946EF00C946EF00C946EF0E8
:10E040000C946EF00C946EF00C946EF00C946EF0D8
:10E050000C946EF00C946EF00C946EF00C946EF0C8
:10E060000C946EF00C946EF00C946EF00C946EF0B8
:10E070000C946EF00C946EF00C946EF00C946EF0A8
:10E080000C946EF00C946EF00C946EF058426A0191
:10E09000ADF4B4F4B6F4F4F40000D3F406F51124AE
:10E0A0001FBECFEFD0E4DEBFCDBF11E0A0E0B1E0F6
:10E0B000EEE9FAEE01E00BBF02C007900D92A2302C
:10E0C000B107D9F722E0A2E0B1E001C01D92A23071
:10E0D000B207E1F70E9440F20C944DF50C9400F069
:10E0E0008627682F62956827062E669566956025B7
:10E0F000062E669560256770082E892F6695079411
:10E100006795902D86270694679590258627089514
:10E11000909100019230F0F78091C00087FFFACF14
:10E1200081E0809300018091C600089590910001E4
:10E13000923058F48093C6008091C00086FFFCCFD7
:10E140008091C00080648093C00008950E9488F090
:10E150008F930E9488F09F91882F0895AF92BF926D
:10E16000CF92DF92EF92FF920F931F93CF93DF93A3
:10E17000EC01D62E8A0142E0A42E41E0B42EE12C1F
:10E18000F12CEC16FD0618F40E9488F001C08FEF08
:10E19000F50181935F01FFEFEF1AFF0AE11481E0BF
:10E1A000F80679F7E5E4DE1216C0F80160817181A6
:10E1B000AE0182E091E00E9435F5F8018081918105
:10E1C000A281B3818C0F9D1FA11DB11D80839183FE
:10E1D000A283B3831FC0F6E4DF121EC0F801808162
:10E1E0009181A281B381D695C7956C017D01CC0E3A
:10E1F000DD1EE11CF11CC082D182E282F382BC01EF
:10E20000CD01660F771F881F991F21E042E051E082
:10E210000E9431F48DE001C08FE3DF91CF911F9117
:10E220000F91FF90EF90DF90CF90BF90AF90089547
:10E230000F931F93CF93DF938C01EA016534B1F400
:10E2400068817981AC0182E091E00E940BF58881C0
:10E250009981AA81BB81800F911FA11DB11D888367
:10E260009983AA83BB83C2E0D1E034C0663409F04D
:10E270003BC088819981AA81BB81880F991FAA1F01
:10E28000BB1F88839983AA83BB8322E031E0A80166
:10E290004E5F5E4F88819981AA81BB81ABBFFC0133
:10E2A0008791F90181939F0107B600FCFDCF88811A
:10E2B0009981AA81BB810196A11DB11D8883998393
:10E2C000AA83BB832417350729F7B695A795979599
:10E2D0008795C5CFCE01825091408017910724F4D5
:10E2E00089910E9496F0F6CFDF91CF911F910F9107
:10E2F00008958F929F92AF92BF92CF92DF92EF924A
:10E30000FF920F931F93CF93DF934B015C01690141
:10E310007A01C0E0D1E000E010E0C114D104E104D2
:10E32000F104F9F0C11581E0D80761F4B501A40149
:10E3300082E091E00E9414F48FEF981AA80AB80ABC
:10E34000C0E0D0E0FE01EE5FFE4F6081C8010E9498
:10E3500070F08C01219681E0C81AD108E108F1081B
:10E36000DCCFC801DF91CF911F910F91FF90EF900B
:10E37000DF90CF90BF90AF909F908F900895CF92F5
:10E38000DF92EF92FF92CF93DF9340E05FED61E089
:10E3900070E082E091E00E9414F48091FC018835E5
:10E3A00009F067C08091FD01823409F062C080915C
:10E3B000FE01893409F05DC08091FF01863409F0C7
:10E3C00058C0E0900002F0900102FE24EF24FE24E9
:10E3D0002AEF3FEE40E050E060E070EF80E090E038
:10E3E0000E9479F1C6E0D0E06FEF0E9470F02197B3
:10E3F000D9F78E159F0541F0DF91CF91FF90EF90F7
:10E40000DF90CF900C94D3F4C12CD12C7601CFEFB8
:10E4100085B1805885B9B701A60150516F4F7F4F24
:10E4200082E091E00E9414F4C1148FEED806E1045A
:10E43000F10491F021E042E051E0C701B6010E94F1
:10E4400031F48FEFD81AE80AF80AC11480EFD80621
:10E45000E104F104E9F6D0CFC093FC01C093FD01C3
:10E46000C093FE01C093FF01C0930002C09301025C
:10E47000E1CFDF91CF91FF90EF90DF90CF900895A3
:10E48000DF92EF92FF920F931F93CF93DF9300D011
:10E4900000D0CDB7DEB719821A821B821C8210927F
:10E4A0000001279A2F9A0E9491F4589A14BE0FB631
:10E4B000F894A89580916000886180936000109224
:10E4C00060000FBE26E080EE93E9A4E0B0E041E0FA
:10E4D0000097A105B10521F00197A109B10908C074
:10E4E00085B1805885B9215080EE93E9A4E0B0E071
:10E4F0003091C00037FF08C03091C6003B3121F495
:10E500004093000131E001C030E0A895332329F0A9
:10E5100000E010E0DD24D39416C02111D9CF51C101
:10E52000883609F043C10E9488F0863409F426C178
:10E5300008F00CC1813409F417C1823409F426C1F2
:10E540008FE30E9496F085B1805885B90E9488F0CB
:10E55000813611F489E52DC1813429F40E94A6F099
:10E56000A0E0B0E008C0883461F40E9488F0A82FD1
:10E570000E94A6F0BB2789839A83AB83BC838DE07E
:10E5800018C1853629F40E94F8F30E9479F4F7CF78
:10E59000823629F489E50E9496F081E0A2C0823497
:10E5A00069F40E94A6F08C010E9488F0AE014F5FD2
:10E5B0005F4F682FC8010E94AEF0FBC0873669F438
:10E5C0000E94A6F08C010E9488F0AE014F5F5F4F61
:10E5D000682FC8010E9418F1EEC0823589F4898144
:10E5E0009A81AB81BC81880F991FAA1FBB1FABBF4B
:10E5F000FC01E790F6908F2D0E9496F08E2D4FC073
:10E60000833629F40E9488F0082F10E0B8CF8334B5
:10E61000B1F40E9488F0182B89819A81AB81BC816A
:10E62000AC01BD01440F551F661F771F0801FA0199
:10E6300060935B00D0925700E895112426C08D3678
:10E64000B9F489819A81AB81BC81811520EF920751
:10E65000A105B10508F0ACC0880F991FAA1FBB1F08
:10E6600025E0FC01A0935B0020935700E89587CF3D
:10E67000843479F40E9488F0682F89819A810E94FD
:10E680003FF589819A81AB81BC810196A11DB11DA5
:10E6900072CF843691F489819A810E941BF50E9481
:10E6A00096F089819A81AB81BC810196A11DB11D33
:10E6B00089839A83AB83BC837EC0803509F45FCFA6
:10E6C0008C3409F45CCF853429F48DE00E9496F0F7
:10E6D00090E072C0803711F483E56BC0843729F471
:10E6E0008BE70E9496F080E064C098E8980F923023
:10E6F00010F0843519F40E9488F041CF8335A1F4DD
:10E7000088E50E9496F082E40E9496F08FE60E94CF
:10E7100096F08FE60E9496F084E70E9496F08BE2D6
:10E720000E9496F08BE245C0863529F481E30E9471
:10E7300096F087E33EC0833709F0F2CE85E00E9471
:10E7400096F087E90E9496F08EE133C0813689F019
:10E75000843709F0F5CE20E030EF40E050E060E093
:10E7600070EF80E090E01AC020E030EE41E050E031
:10E7700009C020E030EF40E050E004C020E030E08D
:10E7800042E050E060E070E0CB0108C020E030E201
:10E7900040E050E060E070EE81E090E00E9479F1AE
:10E7A000F82E892F0E9496F08F2D03C08B3119F01F
:10E7B0008FE30E9496F091E007B600FCFDCF911127
:10E7C000C2CE0E94BFF10E94A1F4589827982F98BA
:10E7D0000C94000080E090E00F900F900F900F904D
:10E7E000DF91CF911F910F91FF90EF90DF900895EF
:10E7F00080E090E0DC0123E0FC01A0935B0020932B
:10E800005700E89507B600FCFDCF9F5FAF4FBF4FA5
:10E81000811530EE930731E0A307B10569F781E177
:10E8200080935700E8950895CF92DF92EF92FF9280
:10E830009C0133956A017B01EFEFCE1ADE0AEE0AE6
:10E84000FE0A6BBFFA014791FC014193CF01B7016A
:10E85000A601E217F30771F7FF90EF90DF90CF90DA
:10E860000895CF92DF92EF92FF92CF936B017C01DC
:10E87000F999FECF222351F083E0F601E0925B008C
:10E8800080935700E89507B600FCFDCFDA019A01A6
:10E890003395B701A601C1E0EC9111968C911197C7
:10E8A00090E0982F88278E0F911D0C01FA0160933C
:10E8B0005B00C0935700E895112412964E5F5F4F9E
:10E8C0006F4F7F4F2A173B0739F785E0F601E0923B
:10E8D0005B0080935700E89507B600FCFDCF81E10F
:10E8E00080935700E895CF91FF90EF90DF90CF9005
:10E8F0000895CF93DF93E3E0F0E089E08093570041
:10E90000849183FF0BC0C0E0D0E06FEFCE010E9486
:10E9100023F52196CF3F8FE0D807B9F7DF91CF914C
:10E92000089580E190E09093C5008093C40082E058
:10E930008093C00088E18093C10086E08093C2008C
:10E9400008951092C0001092C10086E08093C2002A
:10E950001092C5001092C400089527E031E0FC0138
:10E960003183208380E0089582E008952FB76130DD
:10E9700030EE730731E08307910598F4F89433E0A3
:10E98000FB0180935B0030935700E89597B7892F80
:10E99000817090FDFBCF91E190935700E8952FBFD8
:10E9A000089583E008952FB7F89480E090EFA0E0F9
:10E9B000B0E033E0FC01A0935B0030935700E89592
:10E9C00007B600FCFDCF9F5FAF4FBF4F811540EEF4
:10E9D000940741E0A407B10569F781E180935700EE
:10E9E000E8952FBF80E00895CF93CFB7613030EE28
:10E9F000730731E08307910530F4F8940E9431F4F5
:10EA0000CFBF80E001C083E0CF91089570518F4F58
:10EA10009F4F0C94F4F4DC01CB01FC01F999FECF7B
:10EA200006C0F2BDE1BDF89A319600B40D92415096
:10EA30005040B8F70895F999FECF92BD81BDF89A7C
:10EA4000992780B50895262FF999FECF92BD81BDF3
:10EA5000F89A019700B4021639F01FBA20BD0FB61C
:10EA6000F894FA9AF99A0FBE0895DC01CB0103C01D
:10EA70002D910E9440F541505040D0F70895262F27
:10EA8000F999FECF1FBA92BD81BD20BD0FB6F89493
:0EEA9000FA9AF99A0FBE01960895F894FFCFF6
:02EA9E00010075
:040000031000E00009
:00000001FF
