:020000021000EC
:10E000000C944FF00C946EF00C946EF00C946EF037
:10E010000C946EF00C946EF00C946EF00C946EF008
:10E020000C946EF00C946EF00C946EF00C946EF0F8
:10E030000C946EF00C946EF00C946EF00C946EF0E8
:10E040000C946EF00C946EF00C946EF00C946EF0D8
:10E050000C946EF00C946EF00C946EF00C946EF0C8
:10E060000C946EF00C946EF00C946EF00C946EF0B8
:10E070000C946EF00C946EF00C946EF00C946EF0A8
:10E080000C946EF00C946EF00C946EF058426A0191
:10E09000C3F4CAF4CCF40AF50000E9F41CF5112429
:10E0A0001FBECFEFD0E4DEBFCDBF11E0A0E0B1E0F6
:10E0B000EAECFAEE01E00BBF02C007900D92A2302D
:10E0C000B107D9F722E0A2E0B1E001C01D92A23071
:10E0D000B207E1F70E9452F20C9463F50C9400F041
:10E0E0008627682F62956827062E669566956025B7
:10E0F000062E669560256770082E892F6695079411
:10E100006795902D86270694679590258627089514
:10E11000909100019230F0F78091C00087FFFACF14
:10E1200081E0809300018091C600089590910001E4
:10E13000923058F48093C6008091C00086FFFCCFD7
:10E140008091C00080648093C00008950E9488F090
:10E150008F930E9488F09F91882F0895AF92BF926D
:10E16000CF92DF92EF92FF920F931F93CF93DF93A3
:10E170001F92CDB7DEB75C018A0142E0C42E41E0B8
:10E18000D42EE12CF12CEA14FB0428F469830E94BC
:10E1900088F0698101C08FEFF60181936F01FFEF75
:10E1A000EF1AFF0AE11481E0F80669F76534B1F46B
:10E1B000F80160817181A50182E091E00E944BF538
:10E1C000F80180819181A281B3818A0D9B1DA11DDF
:10E1D000B11D80839183A283B3831EC06634F1F4A2
:10E1E000F80180819181A281B381B694A7946C01DA
:10E1F0007D01CA0CDB1CE11CF11CC082D182E282D1
:10E20000F382BC01CD01660F771F881F991F21E0A3
:10E2100042E051E00E9443F48DE001C08FE30F9093
:10E22000DF91CF911F910F91FF90EF90DF90CF90F2
:10E23000BF90AF900895EF92FF920F931F93CF93EB
:10E24000DF937C01EA016534B1F468817981AC0126
:10E2500082E091E00E9421F588819981AA81BB81A9
:10E260008E0D9F1DA11DB11D88839983AA83BB8339
:10E27000C2E0D1E037C0663409F03EC088819981A0
:10E28000AA81BB81880F991FAA1FBB1F888399830E
:10E29000AA83BB83A2E0B1E0C7018E5F9E4F488195
:10E2A00059816A817B816BBFFA0147914D9307B613
:10E2B00000FCFDCF088119812A813B810F5F1F4F30
:10E2C0002F4F3F4F088319832A833B83A817B90731
:10E2D00031F73695279517950795088319832A8373
:10E2E0003B83C6CFCE01825091408E159F0524F40A
:10E2F00089910E9496F0F6CFDF91CF911F910F91F7
:10E30000FF90EF9008958F929F92AF92BF92CF921D
:10E31000DF92EF92FF920F931F93CF93DF934B0106
:10E320005C0169017A01C0E0D1E000E010E0C114B5
:10E33000D104E104F104F9F0C11581E0D80761F4DA
:10E34000B501A40182E091E00E9426F48FEF981AB3
:10E35000A80AB80AC0E0D0E0FE01EE5FFE4F60817F
:10E36000C8010E9470F08C01219681E0C81AD10882
:10E37000E108F108DCCFC801DF91CF911F910F9127
:10E38000FF90EF90DF90CF90BF90AF909F908F90D5
:10E390000895CF92DF92EF92FF920F931F93CF9346
:10E3A000DF9340E05FED61E070E082E091E00E9489
:10E3B00026F48091FC01883509F06BC08091FD0145
:10E3C000823409F066C08091FE01893409F061C091
:10E3D0008091FF01863409F05CC0C0910002D0E05A
:10E3E000DC2FCC2780910102C82B2AEF3FEE40E0C2
:10E3F00050E060E070EF80E090E00E9483F106E082
:10E4000010E06FEF0E9470F001501109D1F7C817AA
:10E41000D90751F0DF91CF911F910F91FF90EF90AD
:10E42000DF90CF900C94E9F4C12CD12C7601CFEF82
:10E4300085B1805885B9B701A60150516F4F7F4F04
:10E4400082E091E00E9426F4C1148FEED806E10428
:10E45000F10491F021E042E051E0C701B6010E94D1
:10E4600043F48FEFD81AE80AF80AC11480EFD806EF
:10E47000E104F104E9F6CECFC093FC01C093FD01A5
:10E48000C093FE01C093FF01C0930002C09301023C
:10E49000E1CFDF91CF911F910F91FF90EF90DF902F
:10E4A000CF900895DF92EF92FF920F931F93CF9337
:10E4B000DF9300D000D0CDB7DEB719821A821B825D
:10E4C0001C8210920001279A2F9A0E94A7F4589A52
:10E4D00014BE0FB6F894A89580916000886180936F
:10E4E0006000109260000FBE86E040EE53E964E0E9
:10E4F00070E021E0411551056105710529F0415099
:10E5000051096109710908C095B1905895B98150B8
:10E5100040EE53E964E070E09091C00097FF08C0BE
:10E520009091C6009B3121F42093000191E001C03D
:10E5300090E0A895992331F091E000E010E0DD240F
:10E54000D39411C08111D6CFF8CF803561F18C34CE
:10E5500051F1853409F0C6C08DE00E9496F090E03C
:10E5600007B600FCFDCF992309F43DC185B1805861
:10E5700085B90E9488F0982F813611F489E52FC162
:10E58000813429F40E94A6F0A0E0B0E008C08834ED
:10E5900061F40E9488F0A82F0E94A6F0BB2789830F
:10E5A0009A83AB83BC838DE01AC1853629F40E941F
:10E5B0000AF40E948FF4F7CF823629F489E50E948D
:10E5C00096F081E096C0823469F40E94A6F08C0136
:10E5D0000E9488F0AE014F5F5F4F682FC8010E9414
:10E5E000AEF0FDC0873669F40E94A6F08C010E944F
:10E5F00088F0AE014F5F5F4F682FC8010E941BF18A
:10E60000F0C0823589F489819A81AB81BC81880F01
:10E61000991FAA1FBB1FABBFFC01E790F6908F2D7F
:10E620000E9496F08E2D50C0833629F40E9488F007
:10E63000082F10E0B8CF8334B1F40E9488F0182B73
:10E6400089819A81AB81BC81AC01BD01440F551F0A
:10E65000661F771F0801FA0160935B00D092570094
:10E66000E895112426C08D36B9F489819A81AB8151
:10E67000BC81811520EF9207A105B10508F0AEC05D
:10E68000880F991FAA1FBB1F25E0FC01A0935B0008
:10E6900020935700E89587CF843479F40E9488F05E
:10E6A000682F89819A810E9455F589819A81AB8171
:10E6B000BC810196A11DB11D72CF843609F045CFF2
:10E6C00089819A810E9431F50E9496F089819A8110
:10E6D000AB81BC810196A11DB11D89839A83AB8357
:10E6E000BC837FC0803711F483E579C0843729F477
:10E6F0008BE70E9496F080E072C088E8890F823034
:10E7000010F0943519F40E9488F04DCF9335A1F4A0
:10E7100088E50E9496F082E40E9496F08FE60E94BF
:10E7200096F08FE60E9496F084E70E9496F08BE2C6
:10E730000E9496F08BE253C0963529F481E30E9443
:10E7400096F087E34CC0933741F485E00E9496F041
:10E7500087E90E9496F08EE142C09836E9F50E9462
:10E7600088F0863409F128F4813481F0823421F173
:10E7700017C0813681F0843799F420E030EF40E013
:10E7800050E060E070EF80E090E01EC020E030EEEE
:10E7900041E050E00DC020E030EF40E050E008C024
:10E7A0008FE30E9496F0E2CE20E030E042E050E0BD
:10E7B00060E070E0CB0108C020E030E240E050E0D3
:10E7C00060E070EE81E090E00E9483F1F82E892FE6
:10E7D0000E9496F08F2D03C09B3119F08FE30E94A9
:10E7E00096F091E0BDCE0E94C9F10E94B7F458980E
:10E7F00027982F980C94000080E090E00F900F90E5
:10E800000F900F90DF91CF911F910F91FF90EF909C
:10E81000DF90089580E090E0DC0123E0FC01A0930C
:10E820005B0020935700E89507B600FCFDCF9F5F83
:10E83000AF4FBF4F811530EE930731E0A307B1050D
:10E8400069F781E180935700E8950895CF92DF92B0
:10E85000EF92FF929C0133956A017B01EFEFCE1A94
:10E86000DE0AEE0AFE0A6BBFFA014791FC014193F2
:10E87000CF01B701A601E217F30771F7FF90EF9000
:10E88000DF90CF9008958F929F92AF92BF92EF92B8
:10E89000FF92F999FECF211106C09A0133954B01E1
:10E8A0005C01A1E00BC023E0FB0180935B0020939F
:10E8B0005700E89507B600FCFDCFEFCFFA01B08115
:10E8C0004E5F5F4F3196E081F0E0FE2FEE277F0133
:10E8D000EB0EF11C0701F401A0925B00A09357001E
:10E8E000E8951124F2E08F0E911CA11CB11C421777
:10E8F000530721F725E0FB0180935B00209357002D
:10E90000E89507B600FCFDCF81E180935700E895BC
:10E91000FF90EF90BF90AF909F908F900895CF930E
:10E92000DF93E3E0F0E089E080935700849183FF78
:10E930000BC0C0E0D0E06FEFCE010E9439F5219608
:10E94000CF3F8FE0D807B9F7DF91CF91089580E1ED
:10E9500090E09093C5008093C40082E08093C00053
:10E9600088E18093C10086E08093C20008951092F0
:10E97000C0001092C10086E08093C2001092C500D2
:10E980001092C400089527E031E0FC013183208318
:10E9900080E0089582E008952FB7613030EE73076C
:10E9A00031E08307910598F4F89433E0FB018093FC
:10E9B0005B0030935700E89597B7892F817090FDE1
:10E9C000FBCF91E190935700E8952FBF089583E026
:10E9D00008952FB7F89480E090EFA0E0B0E033E026
:10E9E000FC01A0935B0030935700E89507B600FC4C
:10E9F000FDCF9F5FAF4FBF4F811540EE940741E0C1
:10EA0000A407B10569F781E180935700E8952FBF0E
:10EA100080E00895CF93CFB7613030EE730731E0D7
:10EA20008307910530F4F8940E9443F4CFBF80E04F
:10EA300001C083E0CF91089570518F4F9F4F0C9488
:10EA40000AF5DC01CB01FC01F999FECF06C0F2BD4D
:10EA5000E1BDF89A319600B40D9241505040B8F79C
:10EA60000895F999FECF92BD81BDF89A992780B596
:10EA70000895262FF999FECF92BD81BDF89A01978E
:10EA800000B4021639F01FBA20BD0FB6F894FA9AF6
:10EA9000F99A0FBE0895DC01CB0103C02D910E94AD
:10EAA00056F541505040D0F70895262FF999FECFE2
:10EAB0001FBA92BD81BD20BD0FB6F894FA9AF99A9B
:0AEAC0000FBE01960895F894FFCFF1
:02EACA00010049
:040000031000E00009
:00000001FF
